:020000040800F2
:10000000006F0010C10100088B220008B520000815
:1000100089220008770A0008F12800080000000083
:10002000000000000000000000000000AF220008F7
:10003000EB0C000800000000AD220008D1220008EF
:10004000DB010008DB010008DB010008DB01000820
:10005000DB010008DB010008DB010008DB01000810
:10006000DB010008DB010008DB010008DB01000800
:10007000DB010008DB010008DB010008E90B0008D8
:10008000F50B0008DB010008DB010008DB010008BC
:10009000DB010008DB010008DB010008DB010008D0
:1000A000DB010008DB010008DB010008DB010008C0
:1000B000DB010008A1230008DB010008DB010008C8
:1000C000DB010008DB010008DB010008DB010008A0
:1000D000DB010008DB010008DB010008DB01000890
:1000E000DB010008DB010008DB010008DB01000880
:1000F000DB010008DB010008DB010008DB01000870
:10010000DB010008DB010008DB010008DB0100085F
:10011000DB010008DB010008DB010008DB0100084F
:10012000DB010008010C0008DB010008DB0100080E
:10013000DB010008DB010008DB010008DB0100082F
:10014000DB010008DB010008DB010008DB0100081F
:10015000DB010008DB010008DB010008DB0100080F
:10016000DB010008DB010008DB010008DB010008FF
:10017000DB010008DB010008DB01000800000000D3
:10018000DB010008DB010008DB010008DB010008DF
:10019000DB010008DB010008DB010008DB010008CF
:1001A0000000000000000000DB010008DFF80CD0B8
:1001B00000F024FC00480047ED950008006F001097
:1001C0000648804706480047FEE7FEE7FEE7FEE7F1
:1001D000FEE7FEE7FEE7FEE7FEE7FEE74D23000849
:1001E000AD01000840EA01039B0703D009E008C9FC
:1001F000121F08C0042AFAD203E011F8013B00F8EC
:10020000013B521EF9D27047D2B201E000F8012B37
:10021000491EFBD270470022F6E710B513460A4686
:1002200004461946FFF7F0FF204610BD421C10F8A7
:10023000011B0029FBD1801A7047034611F8012BDE
:1002400000F8012B002AF9D11846704710B5484331
:10025000044609F0C7FA002805D00021002C02D07E
:10026000641E0155FAE710BD2DE9FE4F804681EA74
:100270000300C00F0C46009021F0004123F0004520
:10028000B8EB0200A94105D24046214690461C46E3
:100290000B46024623F00040104347D0270DC7F31A
:1002A0000A00C3F30A510290401A019040286BDA09
:1002B000C3F3130040F4801B0098924620B1002342
:1002C000D2EB030A63EB0B0B01985946C0F14002D5
:1002D000504600F04EFA06460D4650465946019AE1
:1002E00000F066FA10EB08006141002487EA115221
:1002F00084EAE7731A4340D0009A62B3019A012A54
:100300004FEA075215DC001B61EB02014FF000427F
:1003100002EA0752CDE90042001C41F58011324645
:100320002B4600F09DFA03B0BDE8F08F4046214611
:10033000F9E7001B61EB0201001C41F58013001876
:100340005B412018A2F5001747EB030140EAD57086
:10035000B6196D4111E06D084FEA360645EAC075E1
:100360004FEA0752001B61EB0201001C41F58011AE
:1003700049084FEA30000019514132462B4603B07C
:10038000BDE8F04F00F05DBA009801224000002364
:10039000D0EB020263EBE073009821464FEAE07471
:1003A000B8EB000061EB0401E9E783F000435BE791
:1003B00081F0004158E72DE9FE4F81EA030404F083
:1003C000004421F0004100944FF0000B23F0004363
:1003D00050EA01045ED052EA03045BD0C3F30A542E
:1003E000C1F30A552C44A4F2F3340194A0FB025447
:1003F000C1F3130141F48011C3F3130343F48013D9
:1004000001FB024400FB034E840A970A44EA81542C
:1004100047EA8357A4FB076802958D0A05FB078509
:100420004FEA932C04FB0C542705029D4FEA065813
:1004300047EA1637B5EB08056EEB070C870E920EF0
:1004400047EA811742EA8312A7FB0201B6EB0B01D0
:1004500064EB00042B0D43EA0C335E1844EB1C5094
:10046000DA465146E7FB0201C5F313044FEA0B33AA
:1004700043EA14534FEA0432019C43EA0603A4F111
:100480000C040294009CCDE900B400F0E9F903B03B
:10049000BDE8F08F00200146F9E72DE9F04D81EA33
:1004A000030404F0004B21F0004514464FF0000A0D
:1004B00023F0004150EA050220D054EA01021DD089
:1004C000C5F30A570246C5F31303C1F31300C1F382
:1004D0000A5640F4801543F48013A7EB0608101B5E
:1004E000D64608F2FD3873EB050002D308F1010887
:1004F00001E092185B41B8F1000F03DA00200146D9
:10050000BDE8F08D00204FF48011064684460EE0D1
:10051000171B73EB050705D3121B63EB050306439B
:100520004CEA010C49084FEA300092185B4150EA4E
:100530000107EDD152EA030012D082EA040083EAF7
:100540000501084305D0101BAB4106D20122002350
:1005500006E000224FF0004302E06FF0010253106A
:100560001AEB06004CEB085110EB0A0041EB0B01B3
:10057000BDE8F04D00F065B90EB5C10F80EAE0703E
:100580000844CA07002140F233438DE80E000A46B2
:100590000B4600F065F903B000BD0EB540F23341E3
:1005A00002910021CDE900110A460B4600F058F9EE
:1005B00003B000BD70B5C1F30A5201F0004500243C
:1005C000C1F3130140F2FF3341F480119A4201DA82
:1005D000002070BD40F233439A42A2F2334203DC62
:1005E000524200F0D5F800E090402C43F1D0404258
:1005F00070BDC1F30A5210B5C1F3130140F2FF33CD
:1006000041F480119A4201DA002010BD40F23343D8
:100610009A42A2F2334203DC524200F0B9F810BD14
:10062000904010BD00F0004230F000400AD0C10DF3
:1006300001F56071C0F3160042EA0151C20840079B
:1006400011437047002001467047000030B5041E7A
:1006500071F1000404DB4FF00044404264EB0101FF
:10066000141E73F1000405DB1C464FF00043524298
:1006700063EB04038B4208BF824230BD30B5041ED9
:1006800071F1000404DB4FF00044404264EB0101CF
:10069000141E73F1000405DB1C464FF00043524268
:1006A00063EB0403994208BF904230BD01F0004360
:1006B00030B421F0004150EA010206D00A0DA2F543
:1006C0006072C1F31301002A02DC30BC00207047C5
:1006D000440F44EAC104C100E01830BC00EBC25032
:1006E00000F078B830B50B460146002020220124E6
:1006F00009E021FA02F59D4205D303FA02F5491BF0
:1007000004FA02F52844151EA2F10102F1DC30BD05
:100710002DE9F05F0546002092469B468846064636
:10072000814640241BE0284641464746224600F0C9
:100730002FF853465A46C01A914110D31146184615
:10074000224600F016F82D1A67EB01084F462246A4
:100750000120002100F00DF817EB00094E41201E8A
:10076000A4F10104DFDC484631462A464346BDE891
:10077000F09F202A04DB203A00FA02F100207047A3
:100780009140C2F1200320FA03F3194390407047CF
:10079000202A04DB203A21FA02F00021704721FAD6
:1007A00002F3D040C2F1200291400843194670473D
:1007B000202A06DBCB17203A41FA02F043EAE07325
:1007C00006E041FA02F3D040C2F120029140084312
:1007D000194670470029A8BF7047401C490008BF50
:1007E00020F00100704710B4B0FA80FC00FA0CF061
:1007F00050EA010404BF10BC704749B1CCF1200499
:1008000021FA04F411FA0CF118BF01212143084325
:10081000A3EB0C01CB1D4FEA00614FEA102042BF51
:10082000002010BC704700EBC35010440029A4BF47
:1008300010BC7047401C490008BF20F0010010BCEC
:10084000704710B5141E73F1000408DA401C41F122
:10085000000192185B411A4301D120F0010010BD44
:100860002DE9F04D92469B4611B1B1FA81F202E0BA
:10087000B0FA80F220329046FFF77BFF04460F4625
:1008800040EA0A0041EA0B0153465A46084313D096
:10089000114653EA010019D0C8F140025046FFF753
:1008A00077FF05460E46504659464246FFF761FF20
:1008B000084305D0012004E020463946BDE8F08D0C
:1008C0000020054346EAE0762C4337430A98630547
:1008D000E40AA0EB08000022FD0A44EA47540A306B
:1008E00002D500200146E9E7010510196941DDE95B
:1008F000084500196941BDE8F04DA2E770B521F047
:10090000004303430CD0C1F30A550024D5EB040582
:1009100064EB0403D617AD1AB34102DB0020014695
:1009200070BD201841EB025170BD2DE9F04D002340
:100930001A461B1A8A4103DB00200146BDE8F08DF0
:10094000C1F30A52C1F3130141F480154FF0000BBB
:10095000D10702D100186D41521E0027044640F213
:10096000FF11384601EB620A3E46804602460020EF
:100970004FF48011FFF70CFFC2197141BB1846EB11
:100980000100B4EB030C75EB000C04D3E41A65EB27
:10099000000517460E46241908F101006D418046F6
:1009A0003428E3DDF91946EB0600091BA84103D200
:1009B0004FF0FF32134601E0002213461BEB070005
:1009C00046EB0A51BDE8F04DFFF73BBFC1F30A52B9
:1009D000C1F3130140F2FF3341F480119A4202DA6D
:1009E00000200146704740F233439A42A2F233425C
:1009F00002DC5242FFF7CCBEFFF7BBBE064C074DF0
:100A000006E0E06840F0010394E8070098471034DE
:100A1000AC42F6D3FFF7CEFB38EB000878EB0008CA
:100A200070B58C1810F8015B15F0070301D110F8B0
:100A3000013B2A1106D110F8012B03E010F8016BDD
:100A400001F8016B5B1EF9D12B0705D40023521E60
:100A50000DD401F8013BFAE710F8013BCB1A921CC8
:100A600003E013F8015B01F8015B521EF9D5A142C6
:100A7000D8D3002070BDFEE72DE9F04186B01E48B6
:100A8000016841F008010160006800F00800009072
:100A900001200290040301940490DFF8608001A912
:100AA000404600F0BFFA6500019501A9404600F0FC
:100AB000B9FAA600019601A9404600F0B3FAE70092
:100AC000019701A9404600F0ADFA002229464046B0
:100AD00000F09CFB00222146404600F097FB0022DC
:100AE0003146404600F092FB00223946404600F075
:100AF0008DFB06B0BDE8F08130380240000C0240AA
:100B000008B5164814490160154944F62062096881
:100B1000B1FBF2F1491E416040F2CF71C16000218A
:100B2000816001610F48016841F0020101600068C5
:100B300000F002000090094800F0FCFE00220221B3
:100B40001D2000F0B3FB1D2000F0A5FBBDE8084010
:100B5000024800F00CBF000000040040300000100C
:100B6000180000104038024070B51C491A4A0A604B
:100B7000042802D0052807D103E04FF46130486013
:100B800002E04FF49640486000248C60CC600C6119
:100B90008C610C254D61114800F0B8FF0F481049D9
:100BA000403001604FF4614141608460C460046181
:100BB0008461456100F0AAFF08480A49803001605D
:100BC0004FF47A3141608460C4600461846145619E
:100BD000BDE8704000F09ABF004400406C00001077
:100BE00000140140004C00400148006B00F07EB84A
:100BF000EC0000100148406B00F078B86C00001069
:100C00000148406B00F072B8AC0000100168CAB235
:100C1000103A1823B2FBF3F2064B9B5CC3656FF3EB
:100C20000901032A02D9091D816500E08165806DF3
:100C300070470000B8E7000810B5014600208A6A36
:100C40008B694FF0C074002B0ED0B3F5005F1FD03E
:100C50008AB3012A32D0022A30D0032A03D1C96ACA
:100C6000C90100D5012010BD42B1012A0BD0022AD2
:100C7000F9D1C96AC901F6D5012010BDC96AC901F7
:100C8000FBD5012010BDC96AA142FBD1012010BDD6
:100C900052B1012A0AD0022A0ED0032AF7D1C96A1A
:100CA000A142F4D1012010BD012010BDC96AC901C3
:100CB000FBD5012010BD01E00120FBE70120F9E791
:100CC00030B50468256825F48025256004686360D4
:100CD0008368402B04D0036899600068C26030BD0F
:100CE00003689A600068C16030BD70472DE9F84321
:100CF00004464FF00008CDF8008070484FF41651BC
:100D00000068B0FBF1F7A56D2E6894F85C0008222E
:100D100002FA00F1314210D02068016849070CD571
:100D2000016821F00401016094F85C0002FA00F10E
:100D3000A960606D40F00100606594F85C10604847
:100D40008840304208D021684969090604D5A86066
:100D5000606D40F002006065594894F85C10C01C5A
:100D60008840304208D021680968890704D5A86006
:100D7000606D40F00400606594F85C1010208840BD
:100D8000304220D02168096809071CD5A860206876
:100D9000016849030CD50068000304D4216C91B1AB
:100DA000204688470FE0A16C69B1204688470AE0D9
:100DB0000168C90503D4016821F008010160216CB4
:100DC00009B12046884794F85C10202088403042C2
:100DD0004FF001064CD021680968C90648D5A860C3
:100DE00094F8350005280BD020680168490330D5F8
:100DF0000068000328D4616C51B32046884737E06F
:100E00002068016821F0160101602068416921F025
:100E100080014161206C08B9A06C20B12068016894
:100E200021F00801016094F85C103F208840A86020
:100E300084F8348084F83560216D00293BD001B0FE
:100E40002046BDE8F0430847E16B09B120468847DA
:100E50000EE00168C90507D4016821F010010160A6
:100E600084F8348084F83560E16B09B12046884706
:100E7000606D00281FD0606DC00714D0052084F875
:100E800035002068016821F0010101600098401CD4
:100E90000090B84203D820680068C007F6D184F8F3
:100EA000348084F83560E16C002904D001B020461C
:100EB000BDE8F0430847BDE8F883000018000010C3
:100EC000010080002DE9F041044600F0A7F9054635
:100ED0005CB1002684F83460022084F83500206874
:100EE000016821F0010101600DE00120BDE8F08101
:100EF00000F094F9401B052805D9202060650320E7
:100F000084F83500F2E720680068C007F0D1216856
:100F10000A681F480240D4E901031843D4E90335A5
:100F20002B43184363691843A3691843E3691843C3
:100F3000236A18431043626A042A03D1D4E90B23BD
:100F40001A43104308602068406920F00700656A72
:100F500029460543012704290BD1A06A05432046F1
:100F6000FFF76AFE28B14020606584F835700120E3
:100F7000BCE7206845612046FFF748FE94F85C20F6
:100F80003F2191408160666584F835700020ADE7AF
:100F90003F8010F02DE9F04104460025A66D94F83D
:100FA000340001280DD0012084F8340094F8357005
:100FB0000020012F07D084F8340002252846BDE820
:100FC000F0810220FBE7022784F835706065204637
:100FD000FFF776FE94F85C103F208840B0602068F0
:100FE000016841F0160101602068416941F080010B
:100FF0004161206C20B12068016841F00801016066
:101000002068016841F001010160D7E731B500F0C7
:1010100005F9044600F002F90099001B8842F9D353
:1010200038BD00002DE9F84F0022DFF8A491DFF869
:10103000A08109F108094FF0010E4FF00F0C09F1E2
:10104000040A0EFA02F60B683340B34271D14C68C1
:10105000022C01D0122C11D1D40800EB84073D6A78
:101060005407E40E0CFA04FB25EA0B05D1F810B086
:101070000BFA04FB4BEA050BC7F820B007685400D5
:101080000325A540AF4391F804B00BF0030B0BFA16
:1010900004FB4BEA070BC0F800B04F68012F05D0E6
:1010A000022F03D0112F01D0122F11D18768AF4327
:1010B000D1F80CB00BFA04FB4BEA070BC0F808B0F0
:1010C0004768B7430E79C6F3001696403E43466024
:1010D000C668AE438D68A5403543C5604C68E400E2
:1010E0006FD53C4C256845F480452560246804F4A0
:1010F00080440094384C22F003052544D5F8087844
:101100009407260F0CFA06F4A743344CA04201D1F1
:1011100000242EE0324CA04201D1012429E0314CC0
:10112000A04201D1022424E02F4CA04202D103248A
:101130001FE046E02D4CA04201D1042419E02C4CC4
:10114000A04201D1052414E02A4CA04201D106247A
:101150000FE0294CA04201D107240AE0274CA0420D
:1011600001D1082405E0264CA04201D1092400E069
:101170000A24B4403C43C5F80848D8F800409C43D2
:101180004D68ED0300D51C43C8F80040104D2D1DDF
:101190002C689C434E68B60300D51C432C60D9F8DC
:1011A00000409C434D68ED0200D51C43C9F8004047
:1011B000DAF800409C434D68AD0200D51C43CAF8E4
:1011C0000040521C102AFFF43CAFBDE8F88F00002D
:1011D000003C014044380240003001400000024021
:1011E0000004024000080240000C024000100240CF
:1011F0000014024000180240001C0240002002407F
:101200000024024042694A4042617047002A01D0EE
:1012100081617047090481617047000001480068DE
:10122000704700001400001002480168491C01606A
:10123000704700001400001010B50B48016841F41D
:1012400000710160016841F480610160016841F44E
:1012500080710160032000F049F80F2000F006F8CB
:1012600000F018F8002010BD003C024010B5044604
:1012700007484FF47A720068B0FBF2F000F044FBCC
:1012800000222146501E00F011F8002010BD000081
:1012900018000010704700F01F0201219140400922
:1012A000800000F1E020C0F800117047F0B40D4656
:1012B0000D4B1B68C3F30223C3F10704042C00D9B0
:1012C0000424191D072901D2002300E0DB1E01269A
:1012D00006FA04F1491E294099409E40761E1640A8
:1012E0003143F0BC00F0D2BF0CED00E000F007018C
:1012F000054A10684FF6FF03184040EA01200349F1
:1013000008431060704700000CED00E00000FA0593
:101310002DE9F04704460E46DFF86891D9F8000041
:1013200006F0FF0800F00F00B0420AD289F80080F2
:10133000D9F8000000F00F00B04202D00120BDE853
:10134000F0872078504F800705D53868A16820F0D5
:10135000F000084338602078C0075BD04A496068D5
:101360000839012808D002280BD0032809D00968C1
:1013700089070BD40120E2E70968890306D401201C
:10138000DDE70968890101D40120D8E7396821F037
:10139000030101433960FFF741FF0546606841F2F0
:1013A000883A01280BD0022816D0032821D02DE03E
:1013B000FFF734FF401B504501D90320BFE73868D1
:1013C000C0F381000128F3D124E0FFF727FF401B81
:1013D000504501D90320B2E73868C0F381000228E4
:1013E000F3D117E0FFF71AFF401B504501D9032046
:1013F000A5E73868C0F381000328F3D10AE0FFF7BE
:101400000DFF401B504501D9032098E7386810F0C4
:101410000C0FF4D1D9F8000000F00F00B04209D948
:1014200089F80080D9F8000000F00F00B04201D028
:10143000012084E72078400705D53868E16820F46A
:10144000E050084338602078000706D538682169E5
:1014500020F4604040EAC100386000F04DF839687F
:10146000F02292FAA2F201F0F001B2FA82F2D14037
:10147000064A515CC840064908600F20FFF7F6FE97
:1014800000205CE7003C024008380240C0E700084A
:101490001800001001480068704700001800001094
:1014A00000B5FFF7F7FF074909684FF4E05292FAD9
:1014B000A2F201F4E051B2FA82F2D140024A515C48
:1014C000C84000BD08380240C0E7000800B5FFF77B
:1014D000E1FF074909684FF4604292FAA2F201F471
:1014E0006041B2FA82F2D140024A515CC84000BD6C
:1014F00008380240C0E7000830B51D48006810F009
:101500000C011C481AD01C4C042916D0082915D1EE
:10151000174A121F116801F03F0113685D0247F678
:10152000C0730CD5B4FBF1F01168194093FAA3F322
:10153000B3FA83F3D94048430BE0204630BDB0FBFB
:10154000F1F01168194093FAA3F3B3FA83F3D94089
:10155000484311684FF4403292FAA2F201F440314C
:10156000B2FA82F2D140491C4900B0FBF1F030BD23
:10157000083802400024F40040787D012DE9F84F3E
:101580000446DFF874832078A8F10407C007A7F1A8
:10159000040552D0D8F80000C0F38100012808D01B
:1015A000D8F80000C0F3810002280AD13868400250
:1015B00007D52868800340D5606878BB0120BDE866
:1015C000F88F6068B0F5803F10D0B0F5A02F12D032
:1015D000286820F480302860286820F48020286063
:1015E0006068E0B1FFF71AFE064614E0286840F490
:1015F00080302860F4E7286840F48020286028685C
:1016000040F480302860EBE7FFF708FE801B642879
:1016100001D90320D3E728688003F5D50DE0FFF753
:10162000FDFD064606E0FFF7F9FD801B642801D9A1
:101630000320C4E728688003F5D42078DFF8BC9243
:1016400080074FF0000A52D5D8F800004FF0F80B91
:1016500010F00C0F08D0D8F80000C0F38100022869
:1016600016D13868400213D42868800704D5E06892
:10167000012801D00120A2E728689BFAABF221697A
:10168000B2FA82F220F0F8009140084328602EE080
:10169000E068E0B10120C9F80000FFF7BFFD064691
:1016A00006E0FFF7BBFD801B022801D9032086E777
:1016B00028688007F5D528689BFAABF22169B2FA51
:1016C00082F220F0F8009140084328600FE0C9F84A
:1016D00000A0FFF7A3FD064606E0FFF79FFD801B75
:1016E000022801D903206AE728688007F5D420780A
:1016F000000729D5DFF800B2814861690BF16C0B56
:1017000089B101210160FFF789FD064606E0FFF778
:1017100085FD801B022801D9032050E7DBF800007B
:101720008007F4D510E0C0F800A0FFF777FD06466B
:1017300006E0FFF773FD801B022801D903203EE776
:10174000DBF800008007F4D4207840076ED56A48A3
:101750003830016841F080510160006800F080502D
:101760000090DFF8A0B1DBF8000040F48070CBF807
:101770000000FFF753FD064606E0FFF74FFD801B14
:10178000022801D903201AE7DBF80000C005F4D5D0
:10179000DFF864B1A0680BF1680B012813D00528AD
:1017A00018D0DBF8000020F00100CBF80000DBF8D7
:1017B000000020F00400CBF80000A06828B3FFF779
:1017C0002DFD06461CE0DBF8000040F00100CBF8E0
:1017D0000000F2E7DBF8000040F00400CBF8000066
:1017E000DBF8000040F00100CBF80000E5E7FFF770
:1017F00015FD811B41F28830814201D90320DEE6CC
:10180000DBF800008007F2D510E0FFF707FD064681
:1018100008E0FFF703FD811B41F28830814201D9C6
:101820000320CCE6DBF800008007F2D4A069E8B31F
:10183000D8F80010C1F3810102295AD0022805D03E
:10184000C9F860A0FFF7EAFC04464DE0C9F860A0C3
:10185000FFF7E4FC064606E0FFF7E0FC801B0228E9
:1018600001D90320ABE628688001F5D4D4E907014B
:10187000084347F6C07292FAA2F2616AB2FA82F2A3
:101880009140A26A4FF0FF3303EB52024FF4403312
:1018900093FAA3F3B3FA83F39A4011434FF07062C3
:1018A00092FAA2F20843B2FA82F200E01FE0E16A83
:1018B0009140084338600120C9F86000FFF7AEFC92
:1018C000044606E0FFF7AAFC001B022801D903200A
:1018D00075E628688001F5D509E0FFF79FFC001B3D
:1018E000022801D903206AE628688001F5D4002087
:1018F00065E6012063E60000083802400000474228
:10190000800E47420070004010B5401EB0F1807F4D
:1019100001D3012010BD4FF0E02460610F2160175A
:1019200000F0B4FC0020A06107202061002010BD61
:101930007047704710B50446002C03D094F8390066
:1019400010B107E0012010BD002084F838002046C7
:1019500000F00CF8022084F83900211D206800F006
:1019600025FD012084F83900002010BD7047016872
:10197000CA6842F00102CA600068016841F00101D2
:10198000016000207047704770B504462068016907
:101990004FF00005C943890716D4C168C9438907B8
:1019A00012D4E91E01610120207620688069800739
:1019B00003D02046FFF7E7FF05E0204600F09BF844
:1019C000204600F099F8257620680169C943490747
:1019D00018D4C168C943490714D46FF004010161E8
:1019E000022020762068806910F4407F03D02046D2
:1019F000FFF7C9FF05E0204600F07DF8204600F023
:101A00007BF8257620680169C943090717D4C168A6
:101A1000C943090713D46FF008010161042020763F
:101A20002068C069800703D02046FFF7ACFF05E0BF
:101A3000204600F060F8204600F05EF82576206829
:101A40000169C943C90618D4C168C943C90614D479
:101A50006FF010010161082020762068C06910F441
:101A6000407F03D02046FFF78EFF05E0204600F0C0
:101A700042F8204600F040F8257620680169C94305
:101A8000C90708D1C168C943C90704D1891E0161CA
:101A9000204600F033F820680169C943090609D4DB
:101AA000C168C943090605D46FF080010161204671
:101AB000FFF73EFF20680169C943490609D4C168A0
:101AC000C943490605D46FF040010161204600F08A
:101AD0001BF820680169C94389060BD4C168C94352
:101AE000890607D46FF0200101612046BDE87040EF
:101AF000FFF71FBF70BD704770470000014901200C
:101B000008707047000000107047704770B50446B9
:101B1000002C04D094F83900002510B106E0012013
:101B200070BD84F83850204600F022F8242084F854
:101B300039002068C16821F40051C160204600F0DE
:101B40001BFD2068016921F4904101612068416911
:101B500021F02A0141612068C16841F40051C1604F
:101B6000E563202084F8390084F83A00002070BD35
:101B70002DE9F84F0446C749DFF81CC32368002548
:101B8000C54A0F15022040260CF1100C4FF0080931
:101B90004FF003088B4265D1116841F400111160C8
:101BA000116801F400110091116841F00401116005
:101BB000116801F004010091DCF8001041F40021EB
:101BC000CCF80010DCF8001001F400210091DFF8DF
:101BD000CCA2CAF80070CAF80850CAF80400CAF8C3
:101BE0000C00CAF81090DFF8B8B251465846FFF71B
:101BF00019FA7001CAF80000CAF810905146584608
:101C0000FFF710FA0AF11409A648C9F80000700598
:101C1000C9F80400C9F80860C9F81070C9F80C5078
:101C2000C9F81450C9F81850C9F81C508012C9F8E6
:101C30002000C9F82450C9F82880C9F82C50C9F8E8
:101C400030504846FFF73EF9C4F83090C9F83840A4
:101C5000012211460F20FFF729FBBDE8F84F0F20A6
:101C6000FFF719BBDFF840E207214FF4807A4FF409
:101C7000403B734553D1136843F00103136013686D
:101C800003F001030093DCF8003043F40033CCF898
:101C90000030DCF8003003F400330093136843F4A1
:101CA00000131360126802F4001200927B4E0422AB
:101CB00074363260B5607060F06007203061314684
:101CC0007A48FFF7AFF9C6F8009007203061314637
:101CD0007648FFF7A7F973481830143630604FF094
:101CE00000607060B5603761F5607561B561C6F818
:101CF0001CA0C6F820B07562C6F82880F56235636E
:101D00003046FFF7DFF86663B4630122002110203C
:101D1000FFF7CCFABDE8F84F1020FFF7BCBADFF8A8
:101D200090E1DFF874C173450CF1140C5AD11368BB
:101D300043F002031360136803F002030093DCF81E
:101D4000003043F01003CCF80030DCF8003003F032
:101D500010030093136843F480031360126802F4C5
:101D600080020092DFF8349109F1E809C9F80060B7
:101D7000C9F80850C9F80400C9F80C000E46C9F8A3
:101D8000101049464B48FFF74DF98020C9F8000074
:101D9000C9F8106049464748FFF744F909F11406AD
:101DA000454830604FF000607060B5603761F560A5
:101DB0007561B561C6F81CA0C6F820B07562C6F89A
:101DC0002880F56235633046FFF77CF86663B463BC
:101DD000012200213A20FFF769FABDE8F84F3A20C6
:101DE000FFF759BA35498B4251D1116841F00401CE
:101DF0001160116801F004010091DCF8001041F05D
:101E00002001CCF80010DCF8001001F02001009156
:101E1000116841F480011160116801F480010091A2
:101E20003146274E3160B5607060F060C6F81090A2
:101E300031461B48FFF7F6F880203060C6F8109056
:101E400031461748FFF7EEF81B4818381436306053
:101E500080057060B5603761F5607561B561C6F881
:101E60001CA0C6F820B07562C6F82880F5623563FC
:101E70003046FFF727F86663B4630122002139205A
:101E8000FFF714FABDE8F84F3920FFF704BABDE8B0
:101E9000F88F0000004C004030380240300D001038
:101EA0000008024070600240004400400000024010
:101EB0000010014000040240406402400014014050
:101EC0008C0E001037B50446134694F83A002028CB
:101ED00001D002203EBD019A8AB383B394F8380042
:101EE00001282FD0012084F83800A262A3850025A4
:101EF000E563222084F83A00616B1348C863616B84
:101F000012480864616B1248C864606B05652168FB
:101F1000606B091DFFF73EF82068C16841F48071CD
:101F2000C1602068416941F0010141612068416957
:101F300041F04001416184F8385000203EBDFFE788
:101F40000120FBE70220F9E7CB2400080725000861
:101F500081240008704770472DE9F84304460D4678
:101F600091461E4694F83900202802D00220BDE890
:101F7000F883B5B1B9F1000F13D094F838000128F7
:101F800011D0012084F838000027E763212084F86D
:101F90003900FFF743F98046A4F82490A4F826906E
:101FA0002DE00120E3E70220E1E7E08C401EE08421
:101FB000A068B0F5805F09D043460022802120460A
:101FC000009600F063FCB0B10320D0E74346002246
:101FD00080212046009600F059FC08B10320C6E796
:101FE00028882168C0F308004860206908B16D1C8A
:101FF00005E0AD1C03E0216815F8010B4860E08C9A
:102000000028D2D14346002240212046009600F00D
:102010003DFC08B10320AAE7202038346070277007
:102020000020A4E7F7B5044694F83900202801D031
:102030000220FEBD019979B372B394F838000128EB
:102040002DD0012084F838002162A284E28400258A
:10205000E563212084F83900236B1248D863236B91
:1020600011481864236B1148D864206B05652068FB
:102070001346001D266B02463046FEF78BFF216893
:102080006FF04000086084F838502068416941F0E2
:10209000800141610020FEBDFFE70120FBE7022037
:1020A000F9E70000112500083F25000881240008F9
:1020B00070477047FEE700687047000010B504469F
:1020C0002DED028B204600F0D9F9FEF766FA41ECBF
:1020D000180B201DFFF7EFFFFEF74EFA9FED071BD1
:1020E00053EC112BFEF767F953EC182BFEF7BCF8F5
:1020F000BDEC028B41EC100B10BD00000000000095
:102100000000F0412DE9FF4F2DED048B83B0054613
:102110000C469046002001902946284607F0FAFB1D
:102120008146EA006A4321464846FEF75BF86C1E8A
:10213000002C7CDB9FED468B04FB0540029009EBF5
:10214000C00053EC182B90ED000B0A9800EBC4066E
:1021500051EC100B86ED000BFEF778FA03D84FF028
:10216000FF30019063E096ED000B02F05DF9B0EEF8
:10217000409AF0EE609A00260FE006FB054709EB57
:10218000C70053EC192B90ED001B51EC110BFEF71F
:1021900084F908EBC70203C2761CA642EDDD0026D7
:1021A000A4F1010B27E0002722E006FB054008EB25
:1021B000C00090ED000B07FB054008EBC00053EC9E
:1021C000102B90ED001B51EC110BFEF7F4F841ECD5
:1021D000100B07FB056009EBC00A51EC100B9AEDE0
:1021E000001B53EC112BFEF7E3F8CAE900017F1C3A
:1021F000B742DADD761C5E45D5DD0026029808EB95
:10220000C00A0FE006FB054008EBC0079AED000B83
:1022100097ED001B53EC102B51EC110BFEF73DF921
:1022200003C7761CA642EDDD641E002C84DA484606
:1022300006F072F8019820B107A20AA1114800F037
:1022400059FB019803B0BDEC048B04B0BDE8F08FDE
:1022500000000000000000006C616D6264612E638C
:10226000000000002573203A204C4420666163740E
:102270006F72697A6174696F6E206572726F720A2B
:10228000000000001C000010FEE770470907090E5F
:10229000002806DA00F00F0000F1E02080F8141D9D
:1022A000704700F1E02080F80014704770477047D5
:1022B00010B504462046FDF7B9FF214682B2BDE8BD
:1022C000104001230148FFF747BE0000EC0000105A
:1022D000FEF7AABF30B593B000251A48016841F057
:1022E00080510160006800F080500190164801683C
:1022F00041F440410160006800F440400190012039
:102300000290000403900224089480010990182090
:102310000A904FF4A8700B900C9407200D9002A81F
:10232000FFF72CF90F200E900F9410954FF4A0504A
:102330001190E002129005210EA8FEF7E9FF13B0FC
:1023400030BD000040380240007000401048016875
:1023500041F4700101600F48016841F00101016022
:102360000C4A00210832116002680B4B1A400260CF
:10237000031D0A4A1A60026822F48022026005489E
:102380000C3001600249580680390860704700002F
:1023900088ED00E000380240FFFFF6FE1030002418
:1023A0000148FFF7F1BA0000300000102DE9F041BC
:1023B0000268244D244E254FDFF894C0254B4FF082
:1023C0008048A84209D0404507D0B04205D0B84265
:1023D00003D0604501D0984203D122F070044A68CE
:1023E0002243A8421BD0404519D0B04217D0B84272
:1023F00015D0604513D0984211D0174CA0420ED092
:10240000164CA0420BD0164CA04208D0154CA0424E
:1024100005D0154CA04202D0144CA04203D122F4A6
:102420004074CA68224302608A68C2620A68826293
:10243000A84201D0984201D109690163012141619B
:10244000BDE8F081000001400004004000080040A9
:10245000000C0040000401400040014000440140E5
:102460000048014000180040001C004000200040CF
:1024700008B500880090BDF8000008BD00687047EE
:1024800070B5846B20684069C0F3C01094F83910AF
:102490000025212904D118B1E584204600F062F816
:1024A00020684069C0F3801094F83A10222904D1C2
:1024B00018B1E585204600F047F8E06B40F01000C9
:1024C000E0632046FFF721FB70BD10B50146886B25
:1024D00009680968C90513D40021C1850168CA6863
:1024E00022F48072CA6001684A6922F001024A61DE
:1024F00001684A6922F040024A61202180F83A10BE
:10250000FFF728FD10BD10B5806BFFF724FD10BD4F
:1025100010B50146886B09680968C9050CD400210B
:10252000C18401684A6922F080024A610068C1687A
:1025300041F04001C16010BDFFF7BAFD10BD10B5FC
:10254000806BFFF7B6FD10BD0168CA6822F4907277
:10255000CA6001684A6922F001024A61202180F8BC
:102560003A1070470168CA6822F0C002CA60202190
:1025700080F83910704700002DE9F04104462068CA
:10258000016921F44052E168114301612068C26889
:1025900049F20C618A432369A168E56919436369BB
:1025A0002B4319431143C1602068416921F44071F4
:1025B000A2690A434261E069B24AB34964253226FE
:1025C000B0F5004F59D02068884201D090427DD1AB
:1025D000FEF77CFF00EBC00101EB00106168890091
:1025E000B0FBF1F7FEF772FF00EBC00101EB00104A
:1025F00061688900B0FBF1F0B0FBF5F06FF01801F5
:10260000484307EB800006EB0010B0FBF5F000F04C
:10261000F007FEF75BFF00EBC00101EB0010616803
:102620008900B0FBF1F0B0FBF5F007EB0017FEF707
:102630004DFF00EBC00101EB001061688900B0FBA9
:10264000F1F8FEF743FF00EBC00101EB00106168F9
:102650008900B0FBF1F0B0FBF5F06FF018014843D2
:1026600008EB800006EB0010B0FBF5F0216800F0ED
:102670000F0038448860BDE8F0812068884201D0AE
:10268000904256D1FEF722FF00EBC00101EB001093
:1026900061684900B0FBF1F0B0FBF5F00701FEF70F
:1026A00015FF00EBC00101EB001061684900B0FBB1
:1026B000F1F8FEF70BFF00EBC00101EB00106168C1
:1026C0004900B0FBF1F0B0FBF5F000E086E06FF000
:1026D0001801484308EB800006EBC000B0FBF5F0A2
:1026E00000F0F80007EB4007FEF7F0FE00EBC0013A
:1026F00001EB001061684900B0FBF1F8FEF7E6FE5F
:1027000000EBC00101EB001061684900B0FBF1F083
:10271000B0FBF5F06FF01801484308EB800006EBC2
:10272000C000B0FBF5F0216800F007003844886075
:10273000A1E7FEF7B5FE00EBC00101EB00106168F8
:102740004900B0FBF1F0B0FBF5F00701FEF7A8FE81
:1027500000EBC00101EB001061684900B0FBF1F82B
:10276000FEF79EFE00EBC00101EB0010616849001E
:10277000B0FBF1F0B0FBF5F06FF01801484308EB47
:10278000800006EBC000B0FBF5F000F0F80007EBAE
:102790004007FEF785FE00EBC00101EB0010616809
:1027A0004900B0FBF1F8FEF77BFE00EBC00101EB46
:1027B000001061684900B0FBF1F0B0FBF5F06FF07C
:1027C0001801484308EB800006EBC000B0FBF5F0B1
:1027D000216800F00700384488604CE7FEF760FE8F
:1027E00000EBC00101EB001061688900B0FBF1F75C
:1027F000FEF756FE00EBC00101EB00106168890096
:10280000B0FBF1F0B0FBF5F06FF01801484307EBB7
:10281000800006EB0010B0FBF5F000F0F007FEF7CB
:102820003FFE00EBC00101EB001061688900B0FBC6
:10283000F1F0B0FBF5F007EB0017FEF731FE00EB0F
:10284000C00101EB001061688900B0FBF1F8FEF7F0
:1028500027FE00EBC00101EB001061688900B0FBAE
:10286000F1F0B0FBF5F06FF01801484308EB800081
:1028700006EB0010B0FBF5F0216800F00F003844C3
:102880008860F8E600140140001001402DE9F04195
:1028900004460E4617469846069D1DE0681C1BD050
:1028A0002DB1FEF7BBFCA0EB0800A84214D92068AC
:1028B000C16821F4D071C1602068416921F0010133
:1028C0004161202084F8390084F83A00002084F81F
:1028D00038000320BDE8F0812068006836EA000077
:1028E00004D00020B842D9D00020F3E70120F9E756
:1028F000FEE700000FB4024610B504A9034B03988D
:1029000002F0EEFA10BC5DF814FB0000058300082D
:102910000FB4084B10B504A902AA039802F0E0FA1C
:10292000044602A9002002F072FE204610BC5DF8A9
:1029300014FB00000F56000803B4019841000098F2
:1029400050EAC12018BF04204A0D18BF40F0010012
:1029500040F2FF72B2EB515F08BF40F00200012865
:1029600008BF052002B0704770B5C1482DED020BBD
:102970002DED0E8B82B0119D25F000449FEDBEDB46
:102980009FEDBFEB84423EDBA4F140511098A1F1D2
:102990007F6108430FD0BC48844202DC28D11098E4
:1029A00030B39DED100B02B0BDEC0E8B02B0BDE854
:1029B000704002F079B99DED100B53EC1D2B51ECDA
:1029C000100BFDF7F8FC9DED100B41EC180B53ECD0
:1029D0001E2B51EC100BFDF7EEFC53EC182BFDF702
:1029E00043FC41EC100B02B0BDEC0E8B02B070BD8D
:1029F000012002F0ADF902B0BDEC0E8B02B0BDE8D3
:102A0000704002F065B9A1489FEDA18B844256DA6F
:102A10009DED100BB4F1795F0ADA51EC100BFFF762
:102A20008BFF042808BF02F073F99DED100BDAE765
:102A300053EC102B51EC100BFDF7BDFC41EC190BC6
:102A400095480621B0EE490AF0EE690A784401F093
:102A5000FFFF53EC192B51EC100BFDF7ACFC41ECD4
:102A60001A0B8E48B0EE490AF0EE690A0421784448
:102A700001F0EEFF53EC192B51EC100BFDF79BFC12
:102A800053EC182BFDF7F0FB41EC100B51EC1A0B3B
:102A900053EC102BFDF701FDCDE900019DED000B7E
:102AA00053EC102B9DED100B51EC100BFDF783FC3C
:102AB0009DED101B53EC112BFDF7D6FBD2E09DEDE5
:102AC000100B51EC100B05F079FA53EC182BFDF7B5
:102AD0006FFC9FED730BCDE9000153EC102B9DEDC6
:102AE000000B51EC100BFDF766FC41EC190B6E4826
:102AF0000621B0EE490AF0EE690A784401F0A8FF19
:102B000053EC192B51EC100BFDF755FC41EC1B0B52
:102B10006648B0EE490AF0EE690A0421784401F0F3
:102B200097FF53EC192B51EC100BFDF744FC53ECC1
:102B3000182BFDF799FB41EC1C0B51EC190B09F01C
:102B400025FE41EC180B5A489FED5BABA04222DCFE
:102B500053EC1C2B51EC1B0BFDF79FFCCDE9000146
:102B60009DED000B51EC180B53EC102BFDF723FCE3
:102B700053EC182BFDF778FB53EC1A2BFDF71BFCDD
:102B800053EC1D2BFDF711FC53EC1E2BFDF710FC35
:102B900041EC100B5FE08DED008B002000909DED6F
:102BA000000B51EC180B53EC102BFDF75DFB9DED6A
:102BB000000B41EC1E0B53EC102B51EC100BFDF7EE
:102BC000FAFB53EC192BFDF7F3FB53EC1E2BFDF72F
:102BD00064FC41EC190B53EC1C2B51EC1B0BFDF767
:102BE0005CFC41EC1B0B53EC1A2B51EC190BFDF761
:102BF000E2FB53EC1D2BFDF7DBFB41EC190B53EC17
:102C00001A2B51EC180BFDF7D6FB53EC1B2BFDF7E1
:102C1000D2FB53EC192BFDF7C8FB9DED000B41ECEB
:102C2000180B53EC1A2B51EC100BFDF7C4FB9FED66
:102C3000249B53EC192BFDF7BBFB41EC100B51EC23
:102C4000180B53EC102BFDF7B0FB53EC192BFDF7D1
:102C5000AFFB41EC100B002D3FF7C5AE51EC100B54
:102C600081F0004141EC100BBDE6000000000000C7
:102C70000000F03F00000000075C143326A6913CE2
:102C8000182D4454FB21F93F0000F07F0000E03F85
:102C9000000000000000F03F80BD00008EBD00007D
:102CA000000000000000E03FD2BC0000E0BC0000DB
:102CB0003333EF3F00000000000000000000004040
:102CC000182D4454FB21E93F70B59B482DED020BB4
:102CD0002DED068B079D25F00044A04218DC974897
:102CE000844202DC0AD1069840B19DED060BBDEC92
:102CF000068B02B0BDE8704001F0D6BF002DCCBFFE
:102D00009FED8F0B9FED900BBDEC068B02B070BD5D
:102D10008F48A04215DD8F48A042D8BF4FF0FF3446
:102D200058DD9DED060B51EC100BFFF705FE042856
:102D300008BF01F0EDFF9DED060BBDEC068B02B068
:102D400070BD9DED060B51EC100B05F037F9CDE988
:102D5000060181489FED828BA0423CDD8248A04263
:102D60001FDD00249FED82AB9DED060B53EC1A2B6B
:102D700051EC100BFDF778FA9DED060B41EC190BA9
:102D800053EC1A2B51EC100BFDF715FB53EC182BE1
:102D9000FDF70BFB53EC192BFDF77FFBCDE906018B
:102DA00049E09DED060B012453EC182B51EC100B60
:102DB000FDF75AFA9DED060B41EC190B53EC182B5D
:102DC00051EC100BFDF7F1FA53EC192BFDF765FBF5
:102DD000CDE906012FE06848A0421FDD02249FEDE7
:102DE000689B9DED060B53EC192B51EC100BFDF776
:102DF000E2FA53EC182BFDF737FA9DED060B41EC88
:102E0000180B53EC192B51EC100BFDF7CEFA53ECC9
:102E1000182BFDF742FBCDE906010CE09DED060BFA
:102E2000032453EC102B9FED580B51EC100BFDF7C6
:102E300034FBCDE906019DED060B53EC102B51EC54
:102E4000100BFDF7B8FA41EC180B53EC182BFDF7FB
:102E5000B2FA41EC190B4E480621B0EE490AF0EEE9
:102E6000690A784401F0F4FD53EC182B51EC100B77
:102E7000FDF7A1FA41EC180B4648B0EE490AF0EE16
:102E8000690A0521784401F0E3FD53EC192B51EC5C
:102E9000100BFDF790FA41EC100B51EC180B53ECB2
:102EA000102B002C0EDAFDF7DFF99DED061B53EC1D
:102EB000112BFDF780FA9DED061B53EC112BFDF74E
:102EC00077FA35E0FDF7D0F99DED061B53EC112B99
:102ED000FDF771FA41EC100B2F48784400EBC40069
:102EE00090ED001B51EC100B53EC112BFDF75DFA2C
:102EF0009DED061B53EC112BFDF757FA41EC100B1F
:102F00002648784400EBC40090ED001B51EC100BF8
:102F100053EC112BFDF74CFA41EC100B002DA2BF26
:102F2000BDEC068B02B070BD51EC100B81F000417E
:102F300041EC100B01E70000000010440000F07F9E
:102F4000182D4454FB21F93F182D4454FB21F9BF9F
:102F50000000DC3F0000203E0000F33F00000000C6
:102F6000000000000000F03F0000E63F000000000D
:102F7000000000000000004000800340000000004E
:102F8000000000000000F83F000000000000F0BF5B
:102F900022BA0000D8B9000062B900001AB90000D6
:102FA00070B56B4E2DED040B2DED028B82B0DDF86C
:102FB0001CC0DDE905235C422CF000411C4341EAC2
:102FC000D474049D22F00040B44205D86C422C43D6
:102FD00040EAD474B4420BD99DED061B9DED040B61
:102FE00002B0BDEC028B04B0BDE8704001F066BEDB
:102FF000ACF14054A4F17F641C430BD0022404EADA
:10300000AC7444EAD27405439FED538B9FED542B6F
:1030100007D015E09DED040B51EC100B02F0FCFA0B
:1030200042E0002C11BF012C9DED040B02B0BDEC61
:10303000028B04BF04B070BD022C38D0032C3BD0EF
:103040000B439FED491B9FED4A0B0AD0B14218D1AB
:10305000B04209D121F0804120F0804007910590D5
:103060000FE0002A15DA10E0434B7B44002C08BF28
:1030700093ED000B0DD0012C10D0022C17D0032C97
:103080001AD0B0421DD1002A03DAB0EE410AF0EEA8
:10309000610A02B0BDEC028B04B070BD93ED000B71
:1030A00051EC100B81F0004141EC100BF1E7B0EE58
:1030B000480AF0EE680AECE7B0EE420AF0EE620A67
:1030C000E7E7401A00153C28C8BF8DED000B19DC5E
:1030D000BCF1000FBEBF10F13C0F9FED290B8DED31
:1030E000000B0FDB9DED060B53EC102B9DED040B3D
:1030F00051EC100BFDF7D1F904F060FF02F08CFAEF
:10310000CDE90001002C08BF9DED000BC1D0012CC2
:1031100010D0022C9FED1C0B53EC102B9DED000BDF
:1031200051EC100B0DD0FDF740F953EC182BFDF7C7
:103130003CF9B9E7019880F0004001909DED000B4B
:10314000A7E7FDF732F953EC182BFDF731F9ABE7A0
:103150000000F07F00000000182D4454FB210940BE
:10316000182D4454FB2109C0182D4454FB21F9BFEC
:10317000182D4454FB21F93F5AB90000000000000B
:103180000000000000000000075C143326A6A13CEC
:1031900010B52F499FED2C1B2DED020B84B0059827
:1031A00020F000408842D8BF9DED040B2DDD294959
:1031B000884209D1049840B94FF0010001F0C8FDE0
:1031C00001F086FD06B010BD05DB9DED040B01F09E
:1031D0006BFD06B010BD68469DED040B01F064F96F
:1031E00010F0030004BF9DED021B9DED000B0CD001
:1031F00001280ED09DED021B9DED000B022817D07B
:10320000012001F0A1FC06B010BD01F069FB06B081
:1032100010BD9DED021B9DED000B012001F094FC03
:1032200051EC100B81F0004106B041EC100B10BDC9
:1032300001F056FB51EC100B81F0004106B041EC5F
:10324000100B10BD00000000000000000000000096
:10325000FB21E93F0000F07F10B504462DED028B05
:103260000846FDF79AF941EC180B2046FDF795F951
:1032700053EC182BFDF799F8BDEC028B41EC100BC9
:1032800010BD00000000000070B52DED020B2DED0B
:103290000A8B82B00D98C40F20F00045AE488542DD
:1032A00048D3AE48854219D30C99C5F3130008439F
:1032B00009D09DED0C0B02B0BDEC0A8B02B0BDE84D
:1032C000704001F0F1BC002C14BF9FEDA50B9DEDEB
:1032D0000C0B02B0BDEC0A8B02B070BD9FEDA20BCF
:1032E00053EC102B9DED0C0B51EC100BFDF7C6F9B8
:1032F0000AD2022001F02CFD02B0BDEC0A8B02B014
:10330000BDE8704001F0F4BC9FED990B53EC102B1D
:103310009DED0C0B51EC100BFDF798F90AD2022031
:1033200001F016FD02B0BDEC0A8B02B0BDE87040A2
:1033300001F0EEBC90489FED92BBA8425CD292484F
:10334000854219D29148784400EBC40090ED000BFF
:1033500053EC102B9DED0C0B51EC100BFDF725F8E9
:1033600041EC1A0B8A48784400EBC40090ED009BB6
:10337000C4F10100041B36E09FED870B53EC102BCA
:103380009DED0C0B51EC100BFDF715F841EC100BFB
:103390008348784400EBC40090ED001B51EC100B07
:1033A00053EC112BFCF760FFFDF704F90446FDF721
:1033B000E3F841EC180B9FED7C0B53EC102BFCF762
:1033C000FAFF9DED0C1B53EC112BFCF7F1FF41ECC8
:1033D0001A0B9FED770B51EC180B53EC102BFCF7ED
:1033E000EAFF41EC190B51EC1A0B53EC192BFCF7CB
:1033F000DCFFCDE90C011BE06F48854217D29FED41
:10340000700B53EC102B9DED0C0B51EC100BFCF7DB
:103410002BFF53EC1B2BFDF731F908D29DED0C0B64
:1034200053EC1B2B51EC100BFCF71EFF6EE000243D
:103430009DED0C0B53EC102B51EC100BFCF7BBFF6C
:1034400041EC180B60480521B0EE480AF0EE680A1E
:10345000784401F0FDFA53EC182B51EC100BFCF7FB
:10346000AAFF9DED0C1B53EC112BFCF7A1FF41ECC7
:10347000180B9FED570B5CB353EC182B51EC100B52
:10348000FCF793FF9DED0C0B41EC1C0B53EC182B40
:1034900051EC100BFCF78FFF53EC1C2BFCF7FDFFDE
:1034A00053EC192BFCF784FF53EC1A2BFCF77DFF30
:1034B00053EC1B2BFCF77CFFCDE900016FF47F7010
:1034C000844226DB01EB045001909DED000B00E7E8
:1034D00053EC102B51EC180BFCF767FF9DED0C0B18
:1034E00041EC190B53EC182B51EC100BFCF763FF5C
:1034F00053EC192BFCF7D1FF9DED0C1B53EC112B5A
:10350000FCF753FF53EC1B2BFCF752FF41EC100B65
:10351000DFE608464FF07A5101EB04519FED2E0B88
:10352000084453EC102B01909DED000B51EC100B57
:10353000FCF741FF0D4645EC100B044651EC100B17
:10354000FFF7FAF9042808BF01F0E2FB45EC104B45
:10355000BFE6000000000000422E86400000F07F21
:103560000000000000000000EF39FAFE422E864005
:1035700051302DD5104987C0422ED63F00000000A3
:10358000000000000000F03FB2A2F03F7EB5000056
:103590006EB5000000000000FE822B654715F73F66
:1035A00022B50000000000000000E0FE422EE63FD1
:1035B000763C7935EF39EA3D0000303E00000000EE
:1035C0009C7500883CE4377E94B400000000000045
:1035D000000000000000004000000000000070013A
:1035E0002DED020B019820F0004001909DED000BA5
:1035F00002B07047000000002DE9F0412DED020BF4
:103600009FED3D0B2DED028B9FED3D8BDDE90254CF
:10361000C4F30A50A0F2FF36142E37DA002E18DA5F
:1036200053EC102B9DED020B51EC100BFCF71CFE24
:1036300053EC182BFDF722F857D2002CA4BF00241E
:10364000254652DA24F00040284318BF2E4C4CD0B7
:103650001AE02E4820FA06F704EA070028431FD094
:1036600053EC102B9DED020B51EC100BFCF7FCFD05
:1036700053EC182BFDF702F837D2002C03DA4FF485
:103680008010F0400444BC4300252EE0332E07DCBC
:10369000A6F114004FF0FF3121FA00F73D4206D1A8
:1036A0009DED020BBDEC028B02B0BDE8F08153EC46
:1036B000102B9DED020B51EC100BFCF779FE53EC37
:1036C000182BFCF7DBFF10D2002C0DDA142E08BFEC
:1036D000641C09D0C6F13400012101FA00F028442D
:1036E000A84238BF641C0546BD43CDE902549DED98
:1036F000020BD7E7000000009C7500883CE4377E91
:1037000000000000000000000000F0BFFFFF0F00FD
:103710002DE9F04D2DED040B2DED0E8B96B0DDE96E
:103720002550279CDDF890A025F0004624F00048A5
:10373000BAF1000F14BF0121002101EB4502FC4941
:1037400053184A1093422AD3002814BF01230023A0
:1037500003EB44030B44F7498B4220D358EA0001A2
:103760009FEDF59B76D0DFF8D8B35D4503D1BAF174
:10377000000F05D188E0BAF1000F08BF002100D08A
:10378000012101EB450111F5001F08D8002814BFE5
:103790000121002101EB440111F5001F0BD99DED22
:1037A000261B9DED240B16B0BDEC0E8B04B0BDE8BE
:1037B000F04D01F083BA0027002DBCBFE1498845D8
:1037C00021DAE1498845A8BF02271CDAC3451ADC83
:1037D000DE4901EB2851142908DDC1F1340220FA39
:1037E00002F101FA02F282420DD108E058B9C1F1AA
:1037F000140228FA02F101FA02F2424503D101F063
:103800000101C1F1020756EA0A0124D1002C22DA93
:10381000002D18BF022F01D0012F0AD0022001F085
:1038200097FA16B0BDEC0E8B04B0BDE8F04D01F078
:1038300023BA022001F08CFA01F01EFA51EC100BB1
:1038400081F0004141EC100B16B0BDEC0E8B04B0C2
:10385000BDE8F08D18E09FEDBEAB9FEDBF8B00285B
:1038600071D1B848804522D105F1804010F5801013
:1038700008BFBAF1000F07D0B3450ADC002CA8BF7F
:103880009DED260BE0DA0DE0B0EE490AF0EE690A94
:10389000DAE7002C06DA9DED260B51EC100B81F0D7
:1038A00000416FE0AE48784490ED000BCCE7D8457E
:1038B0004DD1002C48DA2EB186423AD1BAF1000F30
:1038C00042D126E0BAF1000F13D0022001F040FAF5
:1038D00001F00EFA8DED020B9DED240B8DED000B2A
:1038E00010EE900A039961F31E0003909DED020B08
:1038F000AAE78DED02AB9DED240B1AEE901A10EEA7
:10390000900A8DED000B61F31E0003909DED020BFC
:103910009AE78DED028B9DED240B18EE901A10EEB8
:10392000900A8DED000B61F31E0003909DED020BDC
:103930008AE709DA9DED240B51EC190B53EC102B9F
:10394000FCF7ABFD1EE020E09DED240B7CE78642FA
:103950001BDAB4F1804F0DD0A4F10050B0F1FF504C
:1039600013D1002D11DB9DED240B51EC100B08F051
:103970000DFF07E09DED240B53EC102B51EC100BC9
:1039800000F0C2BC41EC100B5EE79DED240B51EC46
:10399000100B04F013FBBAF1000FCDE90E0142D178
:1039A0009FED710B46B3A6F1E040B0F17F600CD003
:1039B0005E4538D1002D00DAA7B3022F0CBF0120DD
:1039C0004FF0FF30FCF7D8FDDCE7002D01DD002CC7
:1039D0000DDA002D01DD002C1FDB002D16DA002C86
:1039E00014DB012F08BF9FED620B3FF42DAFB0EE4B
:1039F0004A0AF0EE6A0A27E7022F18BF002D0CD002
:103A0000012F0AD1002DFFF61FAF06E0002DB8BF31
:103A1000002C08DA012F3FF417AFB0EE480AF0EEA1
:103A2000680A11E71BE0012000EBE57050EA07018E
:103A300015D0791EB0EE498AF0EE698A084308BFB6
:103A40009FED4D8B4E480025804570DD4D494E4819
:103A5000884514DDB0420DDB002C19DB2FE001207E
:103A600001F076F916B0BDEC0E8B04B0BDE8F04D58
:103A700001F02EB9B34502DC002C09DC1FE08642C0
:103A800002DA002C1BDA03E05E452BDD002C16DD8C
:103A9000022001F05DF901F02BF98DED020B53ECE2
:103AA0001A2B51EC180BFCF786FCCDE900010399A9
:103AB000019861F31E0003909DED020BC4E6022005
:103AC00001F046F901F024F910EE901A18EE900A70
:103AD0008DED020B8DED008B61F31E0003909DEDCB
:103AE000020BB1E69DED0E0B53EC192B51EC100BB4
:103AF000FCF75BFC9FED260BCDE9080153EC102B86
:103B00009DED080B51EC100BFCF755FC9FED221BB3
:103B100053EC112BFCF74CFC9DED081B53EC112BC7
:103B2000FCF749FC9FED1E1B53EC112B3CE08CE095
:103B3000FFFF1F00FFFF0F00000000000000F03F2C
:103B40000000F03F0000F07F0000404301FCFFFF59
:103B5000000000000000F07F0000000000000000F6
:103B60001EB1000000000000000000000000008006
:103B7000000000000000F0FF000000000000F0BFA7
:103B80000000E0410000F043FFFFEF3F00000000B5
:103B9000000000000000D03F555555555555D53F04
:103BA000000000000000E03FFCF702FC9DED080B68
:103BB00041EC1A0B53EC102B51EC100BFCF7FBFBF8
:103BC00053EC1A2BFCF7F7FB41EC1A0B9FEDFE0BA5
:103BD00053EC102B9DED080B51EC100BFCF7EBFB9D
:103BE00041EC1B0B9FEDFA0B51EC1A0B53EC102B15
:103BF000FCF7E1FB41EC1A0B9FEDF70B53EC102B9C
:103C00009DED080B51EC100BFCF7D5FB53EC1A2B78
:103C1000FCF7CBFB41EC1A0B51EC1B0B53EC1A2BB2
:103C2000FCF722FB0690CDE906519DED060B53EC07
:103C30001B2B51EC100BFCF7B8FB53EC1A2BFCF7C9
:103C4000B7FB41EC100B00F0A1B90020B6F5801FC6
:103C50000EDA9FEDE30B53EC102B9DED0E0B51ECA8
:103C6000100BFCF7A8FBCDE90E016FF034000E46F7
:103C700000EB2650A0F2FF37C6F31300DA4940F0FC
:103C80007F6646F040568842D8BF002408DDD749F9
:103C90008142C8BF012403DC0024A6F580167F1CE6
:103CA000D348784400EBC4000F9690ED00CB9DED17
:103CB0000E0B53EC1C2B51EC100BFCF776FB9DED1F
:103CC0000E0B41EC1B0B53EC1C2B51EC100BFCF7B7
:103CD000CBFA41EC100B51EC190B53EC102BFCF709
:103CE000DCFB41EC1D0B51EC1B0B53EC1D2BFCF7CB
:103CF00062FB41EC1A0BBF488DED10AB7844109578
:103D000090ED000B4FF0005040EA660000EB84405D
:103D10008DED080B00F5002009909DED080B53EC8C
:103D20001C2B51EC100BFCF740FB9DED0E1B53ECD4
:103D3000112BFCF73DFB41EC100B53EC102B9DEDD0
:103D4000100B51EC100BFCF736FB9DED080B41EC12
:103D50001C0B53EC102B9DED100B51EC100BFCF7D2
:103D60002AFB53EC1B2BFCF723FB53EC1C2BFCF71F
:103D70001CFB53EC1D2BFCF71EFB41EC1C0B53EC06
:103D80001A2B51EC1A0BFCF716FB41EC1B0B9A4853
:103D90000621B0EE4B0AF0EE6B0A784400F058FEB4
:103DA000B0EE401AF0EE601AB0EE41DAF0EE61DAF1
:103DB00053EC1B2B51EC1B0BFCF7FDFA53EC1D2BAA
:103DC000FCF7F9FA9DED100B41EC1B0B53EC1A2B91
:103DD00051EC100BFCF748FA53EC1C2BFCF7EBFAF8
:103DE00053EC1B2BFCF740FA9DED100B41EC1B0B29
:103DF00053EC102B51EC100BFCF7DDFA41EC1D0BD2
:103E00009FED7FEB53EC1E2BFCF72EFA53EC1B2B94
:103E1000FCF72AFA0890CDE908519DED080B53EC08
:103E20001E2B51EC100BFCF7C0FA53EC1D2BFCF7CA
:103E3000BCFA53EC1B2BFCF7BBFA9DED080B41ECD5
:103E40001D0B53EC102B9DED100B51EC100BFCF7E0
:103E5000B2FA41EC1B0B53EC1A2B51EC1D0BFCF787
:103E6000AAFA9DED080B41EC1A0B53EC102B51EC08
:103E70001C0BFCF7A0FA53EC1A2BFCF7F5F941ECFC
:103E80001A0B51EC1B0B53EC1A2BFCF7EDF90C90B1
:103E9000CDE90C519DED0C0B53EC1B2B51EC100B91
:103EA000FCF783FA53EC1A2BFCF782FA41EC1B0B5C
:103EB0009FED550B53EC102B9DED0C0B51EC100BA3
:103EC000FCF779FA41EC1A0B9FED510B51EC1B0BEF
:103ED00053EC102BFCF76FFA41EC1B0B9FED4E0BD4
:103EE00053EC102B9DED0C0B51EC100BFCF763FA0F
:103EF00053EC1B2BFCF7B8F941EC100B4848784405
:103F000000EBC40090ED001B51EC100B53EC112B97
:103F1000FCF7AAF941EC1B0B3846FCF72DFBCDE969
:103F2000080153EC1B2B51EC1A0BFCF79DF941ECEB
:103F3000100B3C48784400EBC40090ED00CB51ECF2
:103F4000100B53EC1C2BFCF78FF99DED081B53EC69
:103F5000112BFCF789F90690CDE906519DED080B70
:103F600053EC102B9DED060B51EC100BFCF71DFADA
:103F700053EC1C2BFCF719FA53EC1A2BFCF715FA2F
:103F800053EC1B2BFCF714FA41EC100B9DED261B98
:103F900053EC102B8DED001B00959DED260B51EC85
:103FA000100BFCF708FA9DED000B41EC1A0B53ECDB
:103FB000102B9DED260B51EC100BFCF7F6F99DED47
:103FC000061B53EC112B2FE0000000604715F73F54
:103FD000FE822B654715F73F44DF5DF80BAE543E7C
:103FE00000000000000040438E9803007AB60B00EA
:103FF0006AAC0000C8AC0000A2AB000000000000EA
:104000000000000000000840000000E009C7EE3F8B
:10401000FD033ADC09C7EE3FF5015B14E02F3EBE1D
:104020002EAA0000E8A90000FCF7C5F953EC1A2BF2
:10403000FCF71AF99DED060B41EC1A0B53EC102B13
:104040009DED000B51EC100BFCF7B5F9CDE90C011F
:104050009DED0C0B51EC1A0B53EC102BFCF704F9F3
:10406000CDE902010C46AA498C422FDB611A0843B4
:1040700018D19DED0C0B53EC102B9DED020B51EC68
:10408000100BFCF792F941EC1B0B9FEDA30B51ECCD
:104090001A0B53EC102BFCF7E7F853EC1B2BFCF737
:1040A000EDFA2DD2022000F053FE00F021FE10EEBA
:1040B000901A18EE900A8DED020B8DED008B61F3D6
:1040C0001E0003909DED020BFFF7BEBB944A24F047
:1040D0000041914214D39349214408437FF4EFAC4B
:1040E0009DED0C0B53EC102B9DED020B51EC100BC6
:1040F000FCF75BF953EC1A2BFCF7C0FA7FF6DFAC48
:1041000024F000408849894A002601EB2051824270
:104110002BDA481C4FF4801121FA00F02044844A25
:10412000C0F30A517A44A1F2FF3192ED000B814AAB
:104130008DED080BCA4020EA0202C0F3130040F4E0
:104140008010C1F1140120FA01F60992002CB8BFC9
:1041500076429DED080B53EC102B9DED0C0B51ECB2
:10416000100BFCF722F9CDE90C019DED0C0B51EC85
:104170001A0B53EC102BFCF777F89FED6F0B0890A0
:10418000CDE9085153EC102B9DED080B51EC100BB1
:10419000FCF711F941EC1B0B9FED690B53EC102B55
:1041A0009DED080B51EC100BFCF705F99DED0C0B88
:1041B00041EC1C0B53EC102B9DED080B51EC100B3C
:1041C000FCF7F3F853EC1A2BFCF7F2F89FED5E1BAB
:1041D00053EC112BFCF7EFF853EC1C2BFCF744F8D5
:1041E00041EC1A0B51EC1B0B53EC1A2BFCF73CF86F
:1041F000CDE902019DED020B53EC1B2B51EC100B92
:10420000FCF7D3F853EC1A2BFCF7D2F89DED020B18
:1042100041EC1A0B53EC102B51EC100BFCF7CBF8C4
:10422000CDE908014A489DED080B0521784400F0CE
:104230000FFC9DED081B51EC100B53EC112BFCF700
:10424000BAF89DED021B53EC112BFCF7B1F8CDE948
:1042500006019DED020B53EC1A2B51EC100BFCF7F1
:10426000AAF853EC1A2BFBF7FFFF9FED3B0B41EC39
:104270001A0B53EC102B9DED060B51EC100BFCF7B9
:1042800094F89DED060B41EC1B0B53EC102B9DEDB0
:10429000020B51EC100BFCF78EF853EC1B2BFCF7C8
:1042A000FCF853EC1A2BFCF780F89DED021B53EC45
:1042B000112BFCF77AF853EC192BFCF779F8CDE9C0
:1042C000020101EB065001150029C8BF039015DC5F
:1042D0009DED020B324651EC100BFCF70FFBFEF785
:1042E0002BFB042808BF00F013FD32469DED020BA6
:1042F00051EC100BFCF702FBCDE902019DED020B26
:1043000051EC180B53EC102BFCF755F8FFF73ABBA8
:104310000000904000000000FE822B654715973C8E
:1043200000CC904000346F3F01FCFFFF0000E03FF5
:10433000A0A80000FFFF0F0000000000432EE63F92
:10434000396CA80C615C20BEEF39FAFE422EE63FC4
:1043500040A7000000000000000000000000004036
:1043600010B52F499FED2C1B2DED020B84B0059845
:1043700020F000408842DCBF00209DED040B32DDC0
:104380002849884209D1049840B94FF0010000F053
:10439000DFFC00F09DFC06B010BD05DB9DED040BBD
:1043A00000F082FC06B010BD68469DED040B00F0E5
:1043B0007BF810F0030011D0012818D09DED021BEE
:1043C0009DED000B02281AD000F08AFA51EC100B78
:1043D00081F0004106B041EC100B10BD9DED021BB9
:1043E0009DED000B012000F0AFFB06B010BD9DED70
:1043F000021B9DED000B00F073FA06B010BD01200A
:1044000000F0A2FB51EC100B81F0004106B041EC32
:10441000100B10BD000000000000000000000000B4
:10442000FB21E93F0000F07F00B52DED048BB0EEDD
:10443000409AF0EE609A83B051EC190BFCF775FAD4
:1044400041EC180B18EE100A18EE901A8DED008B47
:10445000002818BF0120084320F00040C0F17F6011
:1044600000F1E040C00F14D019EE101A19EE900AB6
:104470008DED009B002918BF0121084320F000406A
:10448000C0F17F6000F1E040C00F04BF012000F0E8
:104490005FFCB0EE480A03B0F0EE680ABDEC048B96
:1044A00000BD0000000000002DE9F14F04462DED95
:1044B000020B2DED088B8AB09FEDE70B80ED020B10
:1044C000139EE74826F0004585420ADC9DED120B5D
:1044D000002084ED000B0AB0BDEC088B03B0BDE8F2
:1044E000F08FE0489FEDE0AB9FEDE1BBA84247DDD8
:1044F000E14F9FEDE39B9FEDE48B9DED120B53ECA1
:104500001A2B51EC100B002E1CDDFBF74EFF41EC7B
:10451000100BBD4208D053EC1B2B51EC100BFBF7DA
:1045200044FFC4E900010BE053EC192B51EC100BD4
:10453000FBF73BFF53EC182BFBF737FFC4E90001F7
:104540000120C8E7FBF790FE41EC100BBD4208D0FC
:1045500053EC1B2B51EC100BFBF786FEC4E900015A
:104560000BE053EC192B51EC100BFBF77DFE53ECD9
:10457000182BFBF779FEC4E900014FF0FF30AAE7E2
:10458000C348A84279DB9DED120B51EC100B03F0F0
:1045900015FD41EC180B9FEDC00B53EC102BFBF7F6
:1045A0000AFF9FEDBF1B53EC112BFBF75DFEFCF7E1
:1045B00001F80746FBF7E0FF41EC190B53EC1A2B0F
:1045C000FBF7F9FE53EC182BFBF7F2FE41EC180B4E
:1045D00053EC1B2B51EC190BFBF7EDFEDFF8C8A2D7
:1045E00041EC100B4FEA15580125FA4453EC102BFF
:1045F00051EC180BFBF7D9FE032DC4E900013DD0A7
:10460000C1F30A5005EB4511A8EB000011398142B6
:1046100034DA0AEB051BB0EE48AA9BED000BF0EE76
:1046200068AA53EC102B51EC190BFBF7C4FE41ECBC
:104630001B0B51EC1A0B53EC1B2BFBF7B6FE41EC9A
:10464000180B51EC1A0B53EC182BFBF7AEFE53EC86
:104650001B2BFBF7AAFE9BED020B41EC1A0B53EC54
:10466000102B51EC190BFBF7A6FE53EC1A2BFBF7A2
:104670009CFE41EC100B6D1CB8E70EE0002EA8BFAD
:104680003846BFF628AF94ED000B51EC100B81F0CB
:104690000041C4E9000178421DE7C6F3130040F46D
:1046A000801EC6F30A50A0F2F530471100F01F0536
:1046B000C5F12000DDF848B0089000200690079072
:1046C0000520EC467949002D07EB0002794408BF2C
:1046D00051F8221009D051F8223001EB8201AB4091
:1046E0004A68089922FA01F11943A1FB0E26A1FBA1
:1046F0000B131A449A4234BF0123002303EB06082C
:104700000CEB8003D3E901A60E448E4234BF012195
:10471000002192448A4411B1924502D903E09245A6
:1047200001D2012100E00021C3E901A641444CF877
:104730002010011EA0F10100C4DC029800F100501D
:10474000850F0298DDE903678000DDF81480FBF730
:1047500013FF41EC1A0B3046FBF71FFF9FED541B74
:1047600053EC112BFBF727FE41EC1B0B3846FBF7F4
:1047700014FF9FED511B53EC112BFBF71CFE41EC7A
:10478000180B4046FBF709FF9FED4D1B53EC112B17
:10479000FBF711FE41EC190B51EC180B53EC192BE4
:1047A000FBF762FD53EC1B2BFBF75EFD53EC1A2B62
:1047B000FBF75AFDCDE90801002008909DED080B9C
:1047C00053EC1A2B51EC100BFBF7EFFD53EC1B2BAA
:1047D000FBF7EBFD53EC182BFBF7E7FD53EC192B24
:1047E000FBF7E6FD9FED381B53EC112BFBF7E3FDC8
:1047F0009FED370B41EC180B53EC102B9DED080B84
:1048000051EC100BFBF7D7FD53EC182BFBF72CFDED
:104810009FED310B41EC180B53EC102B9DED080B69
:1048200051EC100BFBF7C7FD53EC182BFBF71CFDED
:1048300041EC100B139810F0004F06D06D4251EC74
:10484000100B81F0004141EC100B284684ED000B69
:1048500041E6000000000000000000000000000031
:10486000FB21E93F7CD9024000004054FB21F93F85
:104870003163621A61B4D03DFB21F93F00000000B2
:104880000000601A61B4D03D7370032E8A19A33BF7
:10489000FB2139410000000083C8C96D305FE43F4F
:1048A000000000000000E03FE2A3000030A3000091
:1048B000000000000000103E000000000000103C5E
:1048C000000000000000103A182D4454FB21F93D6F
:1048D0003326A611460B113C00000054FB21F93D84
:1048E00010B52DED040B2DED088B82B0B0EE419A82
:1048F000F0EE619A0B9820F000449FED4BABB4F1C1
:10490000795F11DA9DED0A0B51EC100BFBF752FEAB
:10491000002801BFB0EE4A0AF0EE6A0A02B0BDEC10
:10492000088B04BF04B010BD9DED0A0B53EC102B97
:1049300051EC100BFBF73FFD41EC180B3C480621F6
:10494000B0EE480AF0EE680A784400F081F853ECC3
:10495000182B51EC100BFBF72EFD9DED0A0B41ECD3
:104960001B0B53EC192B51EC100BFBF724FD41EC06
:10497000190B53EC1B2B51EC180BFBF71CFD53ECE4
:10498000192BFBF712FD9FED2C0B41EC190B53EC8F
:10499000102B51EC180BFBF70EFD41EC100B2848C7
:1049A000844210DA53EC192B51EC100BFBF7FDFC91
:1049B00053EC1A2BFBF7FCFC41EC100B02B0BDECE6
:1049C000088B04B010BD1F48A042BCBF9FED1E1B4A
:1049D0008DED001B06DBA4F5001001900020009077
:1049E0009DED001B51EC100B53EC112BFBF7DDFC84
:1049F0009DED000B41EC180B53EC102B51EC1A0BF6
:104A0000FBF7D3FC41EC1A0B53EC192B51EC180BB0
:104A1000FBF7CBFC53EC1A2BFBF7CAFC41EC100B59
:104A2000CCE7000000000000000000000000F03FA4
:104A30004CA0000000000000000000000000E03F6B
:104A40003333D33F0000E93F000000000000D23FB5
:104A500070B504462DED028B4D1E00EBC500B0EE87
:104A6000408AF0EE608A90ED000B35F0060017D01A
:104A700053EC182B51EC100BFBF79DFC41EC100B89
:104A80006D1E04EBC50090ED001B51EC100B53ECB8
:104A9000112BFBF7E9FB41EC100B35F00600E7D1D9
:104AA000022D36D0042D1CD0062D1CBFBDEC028B70
:104AB00070BD53EC182B51EC100BFBF77CFC94ED04
:104AC0000A1B53EC112BFBF7CFFB53EC182BFBF716
:104AD00072FC94ED081B53EC112BFBF7C5FB41EC6A
:104AE000100B53EC182B51EC100BFBF764FC94EDFE
:104AF000061B53EC112BFBF7B7FB53EC182BFBF702
:104B00005AFC94ED040B53EC102BFBF7ADFB41EC7E
:104B1000100B53EC182B51EC100BFBF74CFC94EDE5
:104B2000021B53EC112BFBF79FFB53EC182BFBF7ED
:104B300042FC94ED001B53EC112BFBF795FBBDECF5
:104B4000028B41EC100B70BD31B504462DED040B0A
:104B50002DED0A8BB0EE41BAF0EE61BA0B989DEDE7
:104B60000A0B20F00040B0F1795F0DDA51EC100B28
:104B7000FDF7E2FE042808BF00F0CAF89DED0A0B1D
:104B8000BDEC0A8B05B030BD53EC102B51EC100B73
:104B9000FBF711FC41EC180B9DED0A0B53EC182BA5
:104BA00051EC100BFBF707FC41EC190B2C48B0EE55
:104BB000480AF0EE680A05217844FFF749FF9FEDA7
:104BC0002ACBB0EE40AAF0EE60AA9CB353EC1C2BAB
:104BD00051EC190BFBF7EFFB41EC1C0B53EC1A2BC0
:104BE00051EC190BFBF7E7FB9FED210B41EC190B87
:104BF00053EC102B51EC1B0BFBF7DDFB53EC192B8B
:104C0000FBF7D3FB53EC182BFBF7D5FB53EC1B2B1B
:104C1000FBF7CBFB53EC1C2BFBF7C7FB9DED0A1BF3
:104C200053EC112BFBF7C4FBBDEC0A8B05B041EC38
:104C3000100B30BDFFE753EC1A2B51EC180BFBF7B0
:104C4000BAFB53EC1C2BFBF70FFB53EC192BFBF7B8
:104C5000B2FB9DED0A1B53EC112BFBF705FBE3E7C1
:104C6000DC9E000000000000495555555555C5BF54
:104C7000000000000000E03F9FED070B10B553EC73
:104C8000102B9FED070B51EC100BFBF706FC41ECD2
:104C9000100B10BD0000000000000000000000002C
:104CA000000000000000F03F10B553EC102B51EC59
:104CB000100BFBF7D9FA41EC100B10BD10B553ECFB
:104CC000112B51EC100BFBF7CFFA41EC100B10BD80
:104CD0009FED050B10B553EC102B51EC100BFBF7AF
:104CE000DCFB41EC100B10BD0000000000000000D8
:104CF0009FED050B10B553EC102B51EC100BFBF78F
:104D00005AFB41EC100B10BD0000000000000070C9
:104D10009FED050B10B553EC102B51EC100BFBF76E
:104D20004AFB41EC100B10BD000000000000001019
:104D300002E008C8121F08C1002AFAD17047704764
:104D4000002001E001C1121F002AFBD170470000C2
:104D50000149086070470000280000102DE9FF5F3E
:104D600082B00021DDE90430020DDDF840B00343DC
:104D700018D044F61050A2F2FF3242431514119895
:104D800001281FD0A5EB0B00401C5FEA000A4FF082
:104D900000064E4FDFF83891B046504615D5CAF19F
:104DA000000413E0119801244AA3012801D16FEAFD
:104DB0000B010298119AC0E90031C0E9024206B025
:104DC000BDE8F09FCBF10000DFE704460021404A38
:104DD000491842EB0450CDE9001012E0E00707D07B
:104DE00032463B4640464946FBF7E5FA804689464F
:104DF00032463B4610461946FBF7DDFA06460F469B
:104E00006410002CEAD1DDE90401DDE90023BAF1E8
:104E1000000F06DAFBF7CFFA42464B46FBF7CBFA18
:104E200005E0FBF73AFB42464B46FBF736FB0446F0
:104E30000E460022284BFBF721FC03D84FF0FF3031
:104E4000014607E00022254B20463146FBF70CFACD
:104E5000FBF7BCFD102409E0002C0ADB0A2200232A
:104E6000FBF756FC039B30321A55641E50EA0102D0
:104E7000F2D1641C039AC4F111031444119A012A5B
:104E800003D0012208430DD10AE0084304D00020DA
:104E90004FF0110B119072E7A3EB0B056D1E0DE0A7
:104EA0005B4504DD4FF0000205F1010504E003DA83
:104EB0004FF00002A5F10105002AECD002981199EB
:104EC000C0E90231C0E9004579E700000000144064
:104ED0000000F03F300000000000F0430000E03F21
:104EE0002DE9FF4F95B09B468946064600250FE207
:104EF000252877D100242746F84A0121059400E0AF
:104F0000044316F8013F203B01FA03F01042F7D1A9
:104F100030782A2811D06FF02F033078A0F13002BA
:104F2000092A16D8059A44F0020402EB820203EB28
:104F300042021044761C0590EFE759F8042B0592C5
:104F4000002A03DA504244F40054059044F002046D
:104F5000761C30782E2816D116F8010F44F0040480
:104F60002A280DD06FF02F023078A0F13003092BE2
:104F700009D807EB870302EB4303C718761CF3E756
:104F800059F8047B761C30786C280FD006DC4C284E
:104F900017D068280DD06A2814D104E0742810D0E6
:104FA0007A280FD10DE044F400140AE044F4801490
:104FB00001E044F440147278824202D104F5801476
:104FC000761C761C307866280BD013DC582877D0F6
:104FD00009DC002875D04528F6D04628F4D04728AB
:104FE0001AD19DE118E0632835D0642879D065286E
:104FF00012D195E1702873D008DC6728F1D06928B8
:105000006FD06E280DD06F2806D1B5E073282CD054
:10501000752875D0782874D05A46179990476D1C1A
:1050200075E1C4F30250022809D003280DD0D9F845
:10503000001004280DD00D6009F1040967E1D9F8CA
:105040000010EA17C1E90052F6E7D9F800100D8008
:10505000F2E70D70F0E719F8041B8DF8001000203E
:105060008DF80100EA46012003E059F804AB4FF047
:10507000FF3061074FF0000102D40DE008F101019B
:105080008846B9420FDA8045F8DB1AF80810002983
:10509000F4D108E008F1010188468142FADB1AF8F0
:1050A00008100029F6D105985B46A0EB08072146B9
:1050B0003846179A00F094FA284400EB080507E0F8
:1050C0004DE029E10DE01AF8010B5A461799904777
:1050D000B8F10108F7D25B4621463846179A13E12A
:1050E00042E00A220092C4F302524FF0000A022A60
:1050F00008D059F804CB032A4FEAEC710AD00DE02E
:1051000029E02AE009F1070121F00702F2E802C1D3
:10511000914609E00FFA8CFC4FEAEC71042A03D1A6
:105120004FFA8CFC4FEAEC71002907DA0A4600219D
:10513000DCF1000C61EB02012D2202E0220504D516
:105140002B228DF80420012203E0E20701D0202267
:10515000F7E7904659E00A2102E010220DE0102105
:105160004FF0000A00910BE010224FF0000A44F0CB
:1051700004040827009203E008224FF0000A00927E
:10518000C4F30252022A05D059F804CB0021032AA5
:1051900008D009E009F1070121F00702F2E802C195
:1051A000914605E01FFA8CFC042A01D10CF0FF0C9B
:1051B0004FF00008220728D5702806D0009B83F006
:1051C000100353EA0A0305D00EE040228DF80420B4
:1051D000012208E05CEA010206D030228DF80420AA
:1051E0008DF8050002229046009B83F0080353EAE5
:1051F0000A030AD15CEA010201D1620705D5302217
:105200008DF804204FF001087F1E582804D034A0E8
:1052100003900EA802900DE036A0F9E753466046D1
:10522000009AFBF775FA84460398825C0298401E48
:10523000029002705CEA0100F0D1029806A9081AF7
:1052400000F1200A600702D524F4803400E0012731
:10525000574502DDA7EB0A0000E0002000EB0A0141
:10526000009005984144401A0590E00306D45B463F
:105270002146179A059800F0B3F90544002706E087
:1052800001A85A46C05D179990476D1C7F1C474581
:10529000F6DBE0030CD55B462146179A059800F033
:1052A0009FF9054404E030205A46179990476D1C39
:1052B0000099481E00900029F5DC08E00298029948
:1052C0005A460078491C0291179990476D1CBAF113
:1052D0000001AAF1010AF1DC65E1000009280100E2
:1052E000303132333435363738396162636465665C
:1052F000000000003031323334353637383941421E
:10530000434445460000000000F058F90544761C6F
:10531000307800287FF4ECAD19B02846BDE8F08F56
:10532000620700D4062709F1070222F0070CFCE807
:105330000223E14603F000485FEA080C02D00FF2B6
:10534000702C0DE05FEA045C02D50FF2682C07E0D8
:105350005FEAC47C02D00FF2602C01E0AFF2700C67
:105360004FF0FF3823F00043CDF850C065280CD033
:1053700006DC452809D046281DD047283DD13DE010
:10538000662818D067287ED138E00021112F01DB74
:10539000112000E0781CCDE9000106A90EA8FFF756
:1053A000DDFCDDE90F010E9A03910021009207F167
:1053B000010A04914DE04FF000400097CDE9011043
:1053C00006A90EA8FFF7CAFCDDE90F0203920E9BA7
:1053D00011990022DDF80CA00093049211B9791CF8
:1053E00000EB010AB7EB0A0004D4C0F1FF3007F16B
:1053F000010A0490AAEB0700019044E0012F00DAB3
:1054000001270021112F01DD112000E03846CDE9F0
:10541000000106A90EA8FFF7A1FCDDE90F010E9A15
:105420000391002104910092BA4621070CD40399FC
:10543000514500DA8A46BAF1010F05DD009AAAF15A
:105440000101515C302908D0B84202DA10F1040F92
:1054500006DA0121CDE9011015E0AAF10101E9E721
:10546000002805DC049901440491AAEB000102E044
:10547000411C514500DD8A460499401A401C0190A8
:105480004FF000400290200704D40198504501DB02
:10549000CDF8048000208DF84F0002980DF14F07E1
:1054A000B0F1004F25D02B200E9002984FF002084B
:1054B00000280CDA404202902D200E9007E00A21CD
:1054C0000298FBF70FF93031029007F8011DB8F18F
:1054D0000001A8F10108F2DC02980028EFD1791E42
:1054E0000E980870307800F0200040F0450007F872
:1054F000020D12A8C01B00F107081498007800B133
:10550000012000EB0A01019801EBE071059841448C
:10551000401A401E0590E00306D45B462146179AC8
:10552000059800F05DF805441498007818B15A46C3
:10553000179990476D1CE00324D55B462146179AC6
:10554000059800F04DF805441CE00498002807DB9E
:10555000DDE90301884203DD0098405C179901E012
:10556000179930205A469047049805F10105401CD0
:1055700004900198401E019004D12E205A4617999C
:1055800090476D1CBAF10001AAF1010ADDDC05E0CB
:1055900017F8010B5A46179990476D1CB8F1000196
:1055A000A8F10108F4DC5B462146179A0598ABE6A2
:1055B0002D0000002B000000200000002DE9F0412C
:1055C000044600251E461746880404D405E03946E3
:1055D0002020B0476D1C641EF9D52846BDE8F08137
:1055E0002DE9F041044600251E469046C80301D52A
:1055F000302700E02027880404D505E041463846DE
:10560000B0476D1C641EF9D52846BDE8F0810A68D4
:10561000531C0B601070704710B541EC100BFDF778
:1056200053FB51EC100B10BD2DE9F04106460F461F
:105630001546002407EBC40090ED000B06EBC400F8
:1056400053EC102B90ED001B51EC110BFAF7ADFE53
:1056500005EBC40203C2641C032CEBDB2846BDE847
:10566000F041032104F0E2BB70B5002300240222C4
:105670008D1E05E0865C3344DBB21C44E4B2521C50
:10568000AA42F7DB084410F8021C994205D110F831
:10569000010CA04201D1012070BD002070BD0000AE
:1056A000F0B50D462DED048BA9B0174616A908F0EC
:1056B00067F99FED158B9FED169B16AE0323CDE981
:1056C000006504ACB0EE481AF0EE681AB0EE490A74
:1056D000F0EE690A1A4619460FA0029404F088F900
:1056E00003238DE8D000B0EE481AF0EE681AB0EE51
:1056F000490AF0EE690A1A46194608A004F078F93A
:1057000029B0BDEC048BF0BD0000000000000000DB
:10571000000000000000F03F4E4E00004E5400001C
:105720002DE9FF5F80462DED028BDDE910AB0026F1
:1057300000209FED248B0AFB0AF104E00BEBC00272
:1057400082ED008B401C8142F8DC002732E000240F
:1057500027E0002520E0AC4206D10598311900EB86
:10576000C10090ED000B03E0B0EE480AF0EE680ACD
:10577000049806EB040900EBC90053EC102B90EDE4
:10578000001B51EC110BFAF76FFD721902FB0A9224
:105790000BEBC20203C26D1C58F82700A842DADCEA
:1057A000641C58F82700A042D3DC38467F1C58F808
:1057B0002000064403988742C9DBBDEC028BBDE89C
:1057C000FF9F000000000000000000002DE9F34FE3
:1057D00006462DED048B85B04FF0000AD6F8A8B030
:1057E000D6F8AC0002900120019000200021C0EB0F
:1057F000001206EBC20202F5A04282F88A12401C97
:105800002028F4DB00209FED539B07E000FB0B02F8
:105810000A9901EBC20181ED009B401C029988426C
:10582000F4DB00200390029F9FED4C8B06F5C840EF
:10583000049084E03C4607F1200933E006EBC40005
:1058400053EC182B90ED2E0B51EC100BFAF7FEFEDB
:1058500027D0E01BC0EB001006EBC00505F5A04506
:10586000D5F88C02D0B195F88B02800716D4049835
:1058700095ED9C1B90ED2A0B51EC110B53EC102B6A
:10588000FAF7FCFE0AD80221E01BC0EB001006EB81
:10589000C00000F5A04080F88A1205E0012085F8DC
:1058A0008A02641C4C45C9DB3D4642E0AC423FD015
:1058B00006EBC50053EC182B90ED2E0B51EC100BA2
:1058C000FAF7C4FE34D0E81BC0EB001006EBC008AA
:1058D00008F5A048D8F88C0238B398F88B028007F6
:1058E00023D4049898ED9C1B90ED2A0B51EC110BDE
:1058F00053EC102BFAF7C2FE17D802980A995044BD
:1059000000FB0B4201EBC20181ED009B00FB0B5140
:105910000A989FED140B00EBC10080ED000B0AF11B
:10592000010A022088F88A0202E0012088F88A022F
:105930006D1C4D45BADB0398401C03904F460199FE
:1059400003988842FFF676AF05B05046BDEC048B55
:10595000BDE8FC8F000000000000F03F00000000E8
:1059600000000000000000000000F0BF2DE9FF5F14
:105970002DED020B80462DED0C8BACB0B0EE40DA75
:10598000F0EE60DADDF83091489E46F26030404437
:10599000299000200E908346182108A8FAF73BFCB6
:1059A000002007900120049008F1780122AA0C46FB
:1059B0003C98FFF739FEB0EE40CAF0EE60CA1CA971
:1059C0003C9801F0F7FB16A9204601F0F3FB0120FB
:1059D000059006904E98022101EB400004460121FB
:1059E00003F098FF10902046012103F093FF0F90E1
:1059F00001214E9803F08EFF159001214E9803F07F
:105A000089FF139001214E9803F084FF1490032125
:105A10004E9803F07FFF119003214E9803F07AFF18
:105A2000129000209FEDFEBBC0EB001108EBC101FE
:105A300001F5A04181EDA0BB81ED9EBB401C20285B
:105A4000F2DB00274FF0FF35002429E04998009051
:105A50004D9801233A4650F8241059F8240007F0D5
:105A60008FFDE0B9002D19DB59F82510012000EB5E
:105A700041024B9901EBC20191ED000B59F8241042
:105A800053EC102B00EB41014B9800EBC10090ED63
:105A9000001B51EC110BFAF7F1FD00D82546641CF0
:105AA0004E988442D2DB002D7EDB00240CE2A5421E
:105AB0007BD0499800904D9801233A4650F8241025
:105AC00059F8240007F05CFD00286ED19FEDD6AB9D
:105AD000509838B1D8F8A800509900FB0BF001EBB2
